:100000000C94A4080C94DC080C94DC080C94333396
:100010000C94DC080C94DC080C94DC080C94DC08D0
:100020000C94DC080C94DC080C945D190C94741D81
:100030000C94662B0C94DC080C94DC080C94DC0803
:100040000C94DC080C94DC080C94DC080C94DC08A0
:100050000C94DC080C94361A0C94DC080C94DC0824
:100060000C94DC080C94DC080C94DC080C94DC0880
:100070000C94DC080C94DC080C94DC080C94DC0870
:100080000C94DC080C94DC080C94DC080C94DC0860
:100090000C94DC080C94DC080C94DC080C94DC0850
:1000A0000C94DC080C94DC080C94DC0800001700AD
:1000B000150008001A0014002B0000000A000900B7
:1000C0000700160004002921390005001900060068
:1000D0001B001D00E10023522824E3002F002652BC
:1000E0002C00000000001C0018000C00120013007F
:1000F0002A0000000B000D000E000F003300343109
:10010000255211001000360037003800E500245257
:10011000E600E700300065002C00000000001C0035
:1001200013003700360034002B0000000C001800CC
:10013000080012000400292139001B000E000D00E8
:1001400014003300E10023522824E3002F0026523C
:100150002C000000000009000A00060015000F0036
:100160002A00000007000B001700110016002D31B7
:100170002552050010001A0019001D00E500245248
:10018000E600E700300065002C00000000000500DC
:10019000130009001A0014002B0000000A001700C9
:1001A0001600150004002921390019000700060077
:1001B0001B001D00E10023522824E3002F002652DB
:1001C0002C00000000000D000F0018001C00330080
:1001D0002A0000001000110008000C001200343149
:1001E00025520E000B00360037003800E50024527F
:1001F000E600E700300065002C0000000000010070
:100200000100010001000100010000000100E10007
:10021000E000E200E30001004700010001000100EE
:1002200001000100010001000100010001000100C6
:100230000100000000004B004A0052004D00A900E0
:100240004C0000004E00500051004F00AA00490031
:1002500001004800AC00AE00AB00A8004600010061
:100260000100010001000100010000000000220067
:10027000210020001F001E00350000002202210284
:1002800020021F021E02350201002F002D00330044
:100290003302310031020100010001002F02010090
:1002A0000100000000002300240025002600270094
:1002B0002E000000230224022502260227022E021D
:1002C000010030002D0236003700380038020100EE
:1002D00001000100300201000100000000000100E7
:1002E00045004400430042000100000001004100BD
:1002F00040003F003E000100010001003D003C00C5
:100300003B003A0001000100010001000100010072
:1003100001000000000001000100010001000100D7
:10032000010000000100E500E400E200E700010038
:1003300001000100010001000100010001000100B5
:1003400001000100010001000100000000000100A7
:100350000100405201000100010000000100010005
:100360004152010001000100010001000100425260
:100370000100010001000100010001000100010075
:100380000100000000000100010001000100010067
:100390000100000020782578237827782178010053
:1003A00001000100267824782878227801000100D5
:1003B00001000100010001000100000000DA1281CB
:1003C000FFD9F1DB20A4A62EAF00A0C0D30000A16E
:1003D000C8D30000AED580A83F408D1420001E0F6A
:1003E0000500047F3F1F643214643214783C1E1EE3
:1003F000140A0500010101010101010101020202CB
:1004000002020202020203030303030303030404C0
:10041000040404040405050505050606060606078A
:100420000707070708080808090909090A0A0A0B43
:100430000B0B0C0C0C0D0D0D0E0E0E0F0F0F1010E4
:10044000111111121213131414151516161717186B
:100450001819191A1A1B1B1C1D1D1E1E1F202021D6
:100460002222232424252626272829292A2B2C2D1D
:100470002D2E2F30313232333435363738393A3B3E
:100480003C3D3E3F404142434445464748494A4C33
:100490004D4E4F50515354555658595A5B5D5E5FFF
:1004A000616264656668696B6C6D6F707273757795
:1004B000787A7B7D7E8082838587888A8C8E8F91F7
:1004C000939596989A9C9EA0A2A3A5A7A9ABADAF21
:1004D000B1B3B5B7BABCBEC0C2C4C6C9CBCDCFD10B
:1004E000D4D6D8DBDDDFE2E4E7E9EBEEF0F3F5F8B4
:1004F000FAFDFFFFAA7F55402223252628292A2C12
:100500002D2F3032333536383A3B3D3E404243455D
:1005100047494A4C4E5051535557595A5C5E606298
:10052000646668696B6D6F71737577797B7D7F81A8
:10053000838587898A8C8E90929496989A9C9E9FA8
:10054000A1A3A5A7A8AAACAEAFB1B3B4B6B8B9BBC6
:10055000BCBEBFC1C2C3C5C6C7C9CACBCCCDCED035
:10056000D1D2D2D3D4D5D6D7D7D8D9D9DADADBDB22
:10057000DBDCDCDCDCDCDDDDDDDDDCDCDCDCDCDBB9
:10058000DBDBDADAD9D9D8D7D7D6D5D4D3D2D2D102
:10059000D0CECDCCCBCAC9C7C6C5C3C2C1BFBEBCF5
:1005A000BBB9B8B6B4B3B1AFAEACAAA8A7A5A3A166
:1005B0009F9E9C9A98969492908E8C8A8987858328
:1005C000817F7D7B79777573716F6D6B6968666408
:1005D00062605E5C5A5957555351504E4C4A4947D8
:1005E000454342403E3D3B3A3836353332302F2D7D
:1005F0002C2A29282625232200AF00AE0000000067
:100600000000000000000000008080C0E0F0707872
:10061000383C1C1E0E0E0E070707070707070707C3
:10062000070707070707070E0E0E1E1C3C387870D9
:10063000F0E0C0808000000000000000000000002A
:1006400000000000000000000000000000000000AA
:10065000000000000000000000000000000000009A
:10066000000000000000000000000000000000008A
:10067000000000000000000000000000000000007A
:10068000000000C0E0F07C3E1F0F07030180C0E0C7
:10069000F078383C1C1E0E0E070787E77F1FFFFF10
:1006A0001F7FE78707070E0E1E1C3C3878F0E0C05E
:1006B000800103070F1F3E7CF0E0C0000000000037
:1006C000000000000000000000000000000000002A
:1006D000000000000000000000000000000000001A
:1006E000000000000000000000000000000000000A
:1006F00000000000000000000000000000000000FA
:10070000F0FCFF1F07010000C0F0FCFEFFF7F3B193
:10071000B03030303030303078FE87010000FFFFDD
:1007200000000187FE7830303030303030B0B1F327
:10073000F7FFFEFCF0C0000001071FFFFCF0000007
:1007400000000000000000000000000000000000A9
:100750000000000000000000000000000000000099
:100760000000000000000000000000000000000089
:10077000000000000000000000000000000000FF7A
:10078000FFFF0000000000FEFFFF0101071E78E1EF
:1007900081838386868C8C9898B1B7FEF8E0FFFF42
:1007A000E0F8FEB7B198988C8C8686838381E178D7
:1007B0001E070101FFFFFE0000000000FFFFFF0019
:1007C000000000FFFF0000C0C030300000F0F0006B
:1007D0000000000000F0F00000F0F0C0C030303049
:1007E00030C0C000003030F3F300000000000030E3
:1007F0003030303030C0C00000000000000000FF8A
:10080000FFFF00000000007FFFFF8080E0781E8770
:1008100081C1C16161313119198DED7F1F07FFFF62
:10082000071F7FED8D191931316161C1C181871EAB
:1008300078E08080FFFF7F0000000000FFFFFF00E6
:100840000000003F3F03030C0C3030000000003379
:1008500033333333330F0F00003F3F0000000000FD
:10086000000000000030303F3F303000000C0C33FF
:1008700033333333333F3F000000000000000000FB
:100880000F3FFFF8E0800000030F3F7FFFEFCF8DA9
:100890000D0C0C0C0C0C0C0C1E7FE1800000FFFFFB
:1008A000000080E17F1E0C0C0C0C0C0C0C0D8DCF8D
:1008B000EFFF7F3F0F03000080E0F8FF3F0F0000D5
:1008C0000000000000000000000000000000000028
:1008D0000000000000000000000000000000000018
:1008E0000000000000000000000000000000000008
:1008F00000000000000000000000000000000000F8
:1009000000000003070F3E7CF8F0E0C08001030701
:100910000F1E1C3C38787070E0E0E1E7FEF8FFFF46
:10092000F8FEE7E1E0E0707078383C1C1E0F07032A
:100930000180C0E0F0F87C3E0F07030000000000DB
:1009400000000000000000000000000000000000A7
:100950000000000000000000000000000000000097
:100960000000000000000000000000000000000087
:100970000000000000000000000000000000000077
:10098000000000000000000000010103070F0E1E20
:100990001C3C3878707070E0E0E0E0E0E0E0E0E01F
:1009A000E0E0E0E0E0E0E070707078383C1C1E0EA3
:1009B0000F0703010100000000000000000000001C
:1009C0000000000000000000000000000000000027
:1009D0000000000000000000000000000000000017
:1009E0000000000000000000000000000000000007
:1009F0000000000000000000000000002020202077
:100A0000202020005343524C434B20002020202024
:100A1000202020004341504C434B20002020202028
:100A2000202020004E554D4C434B2000556E6465F0
:100A300066696E65640A0041646A7573740A0046EB
:100A4000756E6374696F6E0A0053796D0A004E61AA
:100A5000760A00436F6C656D616B2D44480A004453
:100A6000766F72616B0A005157455254590A004C17
:100A7000617965723A2000726576330A0A004B7913
:100A80007269612000808182838485868788898A53
:100A90008B8C8D8E8F9091929394A0A1A2A3A4A5EC
:100AA000A6A7A8A9AAABACADAEAFB0B1B2B3B4C063
:100AB000C1C2C3C4C5C6C7C8C9CACBCCCDCECFD0AE
:100AC000D1D2D3D40005010902A10185020901A1F7
:100AD00000050919012908150025019508750181EE
:100AE000020501093009311581257F9502750881BC
:100AF0000609381581257F950175088106050C0AC0
:100B000038021581257F950175088106C0C0050151
:100B10000980A101850319012AB700150126B70034
:100B2000950175108100C0050C0901A1018504190A
:100B3000012AA002150126A002950175108100C0AE
:100B400005010906A101050719E029E7150025019E
:100B50009508750181029501750881010507190045
:100B600029FF150026FF0095067508810005081964
:100B7000012905150025019505750191029501755D
:100B8000039101C009023B00020100A0FA09040020
:100B900000010301010009211101000122440007A5
:100BA0000581030800010904010001030000000998
:100BB0002111010001227B000705820320000112A0
:100BC000010002000000081D8D44CF000101020059
:100BD0000116034B00790072006900610020007269
:100BE0000065007600330000001803730070006C8D
:100BF00000690074006B0062002E0063006F006DDE
:100C00000000000403090407087F0807003E5B4F4B
:100C10005B3E003E6B4F6B3E001C3E7C3E1C001852
:100C20003C7E3C18001C577D571C001C5E7F5E1CE0
:100C30000000183C180000FFE7C3E7FF000018247D
:100C4000180000FFE7DBE7FF0030483A060E0026F9
:100C50002979292600407F05050700407F05253FAB
:100C6000005A3CE73C5A007F3E1C1C0800081C1C34
:100C70003E7F0014227F2214005F5F005F5F00064A
:100C8000097F017F00006689956A0060606060608E
:100C90000094A2FFA2940008047E04080010207EA5
:100CA00020100008082A1C0800081C2A0808001E3A
:100CB00010101010000C1E0C1E0C0030383E383086
:100CC00000060E3E0E060000000000000000005F5F
:100CD000000000000700070000147F147F140024A8
:100CE0002A7F2A12002313086462003649562050D6
:100CF00000000807030000001C2241000000412200
:100D00001C00002A1C7F1C2A0008083E080800005E
:100D100080703000000808080808000000606000CB
:100D2000002010080402003E5149453E0000427F69
:100D30004000007249494946002141494D3300189D
:100D400014127F10002745454539003C4A49493176
:100D500000412111090700364949493600464949F1
:100D6000291E0000001400000000403400000000B4
:100D70000814224100141414141400004122140811
:100D8000000201590906003E415D594E007C1211D6
:100D9000127C007F49494936003E41414122007F93
:100DA0004141413E007F49494941007F090909010C
:100DB000003E41415173007F0808087F0000417FD9
:100DC0004100002040413F01007F08142241007F84
:100DD00040404040007F021C027F007F0408107FDB
:100DE000003E4141413E007F09090906003E415154
:100DF000215E007F0919294600264949493200032E
:100E0000017F0103003F4040403F001F2040201F62
:100E1000003F4038403F0063140814630003047827
:100E20000403006159494D4300007F4141410002E4
:100E30000408102000004141417F00040201020427
:100E40000040404040400000030708000020545488
:100E50007840007F2844443800384444442800380F
:100E60004444287F0038545454180000087E090276
:100E70000018A4A49C78007F080404780000447D36
:100E80004000002040403D00007F1028440000004A
:100E9000417F4000007C04780478007C08040478DA
:100EA00000384444443800FC182424180018242432
:100EB00018FC007C0804040800485454542400041E
:100EC000043F4424003C4040207C001C2040201C67
:100ED000003C4030403C004428102844004C909096
:100EE000907C004464544C440000083641000000EB
:100EF00000770000000041360800000201020402F1
:100F0000003C2623263C000000000000004040403A
:100F1000F0F8F8FF38FFF8F83FF8F8FF38FFF8F876
:100F2000F040404000000000000080C0C0C08000D1
:100F300000C0C08000000080C0C000C0C0000080B1
:100F4000C0C00000000000C0C0C0C0C000C0C000E1
:100F50000000000000000000000000000000000091
:100F60000000000000000000000000000000000081
:100F70000000000000000000000000000000000071
:100F8000000000000000C0F0F8FC3E1E060100005A
:100F9000007F4141417F007F4141417F000080C08F
:100FA000E07E5B4F5BFEC00000C000DCD7DEDEDE13
:100FB000D7DC00C0000000000000000000000000BE
:100FC0000000000000000000000000000049494946
:100FD000FFFFFFFFE0DFBFBF00BFBFDFE0FFFFFF9E
:100FE000FF49494900000000001F3F6060E0BF1F4B
:100FF000007F7F071E381E077F7F007F7F0E1F3B0D
:10100000716000000000007F7F0C0C0C007E7E00F1
:101010007F7E0303007F7E03037E7E03037F7E00CB
:101020000F3E703C063C703E0F00327B49493F7ECC
:10103000007F7E0303001E3F69696F2600000000E9
:10104000000000000000030F1F3F3C7870600000AC
:10105000007F4141417F007F4141417F00307B7FE4
:101060007830202030787F3B0003000F7F0F0F0F78
:101070007F0F0003000000000000000000000000DF
:10108000000000000000000000000000000101015D
:10109000070F0F7F0F7F0F0F7E0F0F7F0F7F0F0F39
:1010A0000701010100000000000000000000010134
:1010B0000000000000000000000000000000000030
:1010C0000000000000000000000000000000000020
:1010D0000000000000000000000000000000000010
:1010E0000000000000000000000000000000000000
:1010F00000000000000000000000000000000000F0
:1011000000000000000000000000000000000000DF
:1011100000000000000000000000000000000000CF
:1011200000000000000000000000000000000000BF
:1011300000000000000000000000000000000000AF
:10114000000000000000000011241FBECFEFDAE015
:10115000DEBFCDBF04B603FE18C080919309909105
:101160009409A0919509B09196098730904BA740BA
:10117000B04B59F41092930910929409109295096A
:1011800010929609E0E0F8E3099529E0ACE0B2E0BE
:1011900001C01D92A339B207E1F712E0A0E0B1E06F
:1011A000E6E6FDE602C005900D92AC30B107D9F736
:1011B0000E948D2B0C9456360C940000482F2091E1
:1011C000840590914B0557E0291302C080E00895F3
:1011D00030E0529FF001539FF00D1124E45BFA4F71
:1011E0008181681306C08081481303C08581811105
:1011F000EECF2F5F3F4F2770E7CFE8EDF0E0808123
:101200008E7F80831092E2001092DA001092E1004B
:10121000A0EEB0E08C9181608C9380818F77808389
:1012200019BCA7EDB0E08C918E7F8C9380818F7E6E
:1012300080831092340508952091E4003091E500F8
:1012400095E6A9012091EC00822F817020FF06C055
:101250008091E80080FF06C080E008952091E800BA
:1012600022FD1AC080914105882389F0853089F0DC
:101270008091EB0085FD0FC02091E4003091E500E6
:1012800042175307F9F29150E1F684E0089582E0A5
:10129000089583E0089581E008958091430587FFD4
:1012A00013C08091E80082FF06C08091E8008B7730
:1012B0008093E80004C0809141058111F2CF089528
:1012C000809141058823D9F38091E80080FFF8CF11
:1012D0008091E8008E77ECCF982F9093E900242F2F
:1012E000762F50E0891731F07091EC002091ED00DD
:1012F0005091F00021FD07C09F5F973071F78093F8
:10130000E90081E008953091EB003E7F3093EB00DF
:101310003091ED003D7F3093ED003091EB00316076
:101320003093EB007093EC002093ED005093F000AD
:101330002091EE0027FDE0CF80E00895B0E0A0E02E
:10134000E4EAF9E00C946D34C8EDD0E088818F7E3A
:101350008883E7EDF0E080818160808384E082BF54
:1013600081E08093340588818E7F888302EE10E0CF
:10137000F80110821092DA0081EEC82ED12CF6010D
:10138000108288818F7788838881806888838881AC
:101390008F7D888319BC10924105109242051092EE
:1013A000400510923F0590EEE92EF12CF701808167
:1013B0008B7F808388818160888342E060E080E069
:1013C0000E946C09F60180818E7F8083F801808104
:1013D00081608083808188608083F70180818E7F37
:1013E0008083888180618883CDB7DEB7E8E00C9484
:1013F0008934FC018091490590914A058617970729
:10140000A0F06115710529F49091E8009E77909302
:10141000E80090E06115710551F4911108C08091C8
:10142000E80082FF34C080E00895BC01F2CF8091D3
:1014300041058823C1F18530C1F18091E80083FD29
:1014400030C08091E80082FDEACF8091E80080FF03
:10145000E1CF8091F3002091F200382F61157105E2
:1014600019F02830310558F091E02830310509F0A5
:1014700090E02091E8002E772093E800CBCF819177
:101480008093F100615071092F5F3F4FE7CF80914A
:101490004105882341F0853041F08091E80083FFC9
:1014A000BECF81E0089582E0089583E00895089515
:1014B00008958091360508952FB7F894609130050E
:1014C0007091310580913205909133052FBF0895B9
:1014D0009C01FC0132969FEF80E04191461751F04C
:1014E0009F3F19F4411101C0982F8F5F8630A9F7F3
:1014F0009F3F09F40895290F311D97FD3A95F90191
:1015000062830895A3E0B0E0E8E8FAE00C94733455
:1015100020912D0530912E0528173907A1F09093C1
:101520002E0580932D05E0912B05F0912C05309729
:1015300051F024E029839B838A830084F185E02D88
:10154000CE01019609952396E2E00C948F34A3E036
:10155000B0E0EDEAFAE00C94733420912905309163
:101560002A0528173907A1F090932A0580932905A9
:10157000E0912B05F0912C05309751F023E0298361
:101580009B838A830084F185E02DCE010196099525
:101590002396E2E00C948F3480912705882359F03C
:1015A000E0912B05F0912C05309729F00190F08106
:1015B000E02D0995089580E0089580911C0580FD37
:1015C00016C081FD16C082FD16C080911B058823C0
:1015D000A1F0883280F428E0829FC001112468E2E3
:1015E00070E00E94B434862F672B39F0089582E0B2
:1015F000089584E0089588E0089581E00895809139
:101600001C0580FD14C081FD14C082FD16C08091B0
:101610001A05882381F08E3180F420E5829FC00175
:1016200011246EE170E00E94B434862F089584E1A5
:10163000089588E2089588E0089580E50895282FA8
:1016400035EB2303C001112497FF04C08058910992
:10165000892F089580589F4FFBCFFC01680F791F99
:101660008FEF91E32191822728E030E087FF09C0C6
:10167000880F892721503109C9F7E617F70791F735
:101680000895880FF7CF90E06623A1F083589E4F0E
:10169000FC0120812F3F89F0E22FE295EF70F0E00E
:1016A00080A190E02F7002C0959587952A95E2F76A
:1016B0008170089584589E4FEBCF80E0089590E0AC
:1016C0006623E9F083589E4FFC0180818F3FB1F083
:1016D000E82FE295EF70F0E041A18F7021E030E05B
:1016E000B90102C0660F771F8A95E2F7CB01962FEA
:1016F0009095942391A392A1892B82A30895845855
:101700009E4FE2CF90911405E92FF0E0409115052E
:101710009F012F5F3F4F2370332742171306A9F015
:10172000EA5EFA4F282F2F7780818078822B60FB2A
:1017300087F980839F5F93709093140580911205C1
:101740008F5F8093120581E0089580E00895FA018B
:10175000811101C0FB0109950895E6ECF2E01182C8
:101760008281846082830895609171018091BC04BC
:1017700080FF0CC070E08091700123E0829FC00167
:10178000112484539D4F0E94551408958091720135
:101790009091730123E0829FF0011124E453FD4FE7
:1017A000891740F71182108212828F5F3396F8CF2B
:1017B0009091BC0490FF0EC0909172012091730132
:1017C00033E0939FF0011124E453FD4F921718F07A
:1017D0000E94B40B08958183608342839F5F339698
:1017E000F5CF8091BC04982F9C7F61F48370846056
:1017F0008093BC048091BF04813818F080E8809306
:10180000BF0408958C3AB0F38370886AF1CFAF9229
:10181000BF92DF92EF92FF920F931F93CF93DF93CC
:10182000182F062FE901413808F040E8E42FF0E0D6
:10183000ED50FC4F011110C0E4915E2F4E2F4983F3
:10184000E8835A83DF91CF911F910F91FF90EF9022
:10185000DF90BF90AF900895202F30E04491D42EB8
:10186000E42EF12C56E0159FC0011124EFEFF0E0BB
:10187000BF010E944F34812F90E0880F991F55E5DA
:10188000569FD001579FB00D11248A1B9B0B982F98
:10189000990F890F5F01A21AB30AAE9CD001AF9CC9
:1018A000B00DBE9CB00D11245B2F089F8001112448
:1018B000012F11275F01A01AB10AAE9C8001AF9CD5
:1018C000100DBE9C100D11245F01A81AB108A29E34
:1018D000C001A39E900DB29E900D1124892F9927CF
:1018E000E81BF90BEE9DC001EF9D900DFE9D900D44
:1018F0001124E92F62307105A1F050F461157105D2
:1019000009F49DCF6130710581F0EB2F512F97CFF6
:101910006430710569F080F06630710509F48FCF8D
:10192000F4CFE42F4B2F592F8ACFE42F412F87CFAD
:10193000EB2F542F492F83CF4B2F5D2DE12F7FCFDE
:101940000F931F93CF93DF93EC0110E000E0909191
:1019500074019017110609F06CF40E94B40B8C818D
:1019600090E00196817099278C83DF91CF911F9130
:101970000F91089520917201A801420F511D9A0103
:10198000220F331F240F351F24533D4F4C8160918C
:10199000BE048091BD0496959017110651F04CF04D
:1019A000442349F04091BF040E94070C0F5F1F4F72
:1019B000CECF4423B9F340E0F7CFA3E0B0E0E3EEAD
:1019C000FCE00C9471348C018091CB0281110AC02F
:1019D0009E012F5F3F4F40E86FEF0E94070C8A8106
:1019E0008093CB02F8016481613069F08091CB0271
:1019F00040E0662361F040E0623011F44091CB0298
:101A000080E060E004C06091CB0240E080E00E9492
:101A1000D80BF801848190E0019663E070E00E94A9
:101A2000B43484832396E4E00C948D34B0E0A0E0D9
:101A3000ECE1FDE00C946934EC014C81042F10E0E2
:101A40009801D8010E9447369B01AC010E941236D2
:101A50004B015C01E0E2F0E0E01BF10BA5E5B0E03A
:101A6000AC019B010E9412366B017C019F01DF01DA
:101A70000E94CE349B01AC010E941D369B01AC013B
:101A8000280D391D4A1D5B1DC701B6010E94253670
:101A9000F22E822F90E039E23F1520F143E0249F9F
:101AA0009001112435952795122F109500E085E5BA
:101AB000E82EEF1880917401081718F10E94B40BFA
:101AC0009C8181E0992319F0903219F48FEF809373
:101AD0006F0180916F01890F8C83CDB7DEB7ECE089
:101AE0000C94853425E530E0B901681B790B9B0126
:101AF000220F331F260F371F37FFD4CF2F5F3F4FE3
:101B0000D1CF8E2D01FD8F2D20917201622F600F9C
:101B10007727771F9B01220F331F260F371F245370
:101B20003D4F412F6091BE040E94070C0F5FC2CF52
:101B3000EF92FF920F931F93CF93DF93EC018C8171
:101B4000811109C081E08C831092CA0292E09093C7
:101B50006E0180936D01809172019091730123E079
:101B6000829FF0011124E453FD4F891758F110E0D2
:101B700003E060917401161758F10E94B40B809134
:101B80006D012091CA02280F2093CA0290916E0124
:101B9000980F90936E01191654F4022E000C330B1B
:101BA000409174014150550B2417350734F081954D
:101BB00080936D01813009F41C82CDB7DEB7E6E079
:101BC0000C948B341182108212828F5F3396CDCFAA
:101BD000E12EF12C70E0C7010E94B4342091720113
:101BE000820F482F50E02091CA02022E000C330BC6
:101BF000E216F306BCF020916E01022E000C330BAE
:101C00002E153F057CF0809F9001112424533D4FF9
:101C10004091BF046091BE048091BD040E94070CF6
:101C20001F5FA7CFFA01EE0FFF1FE40FF51FE4536C
:101C3000FD4F118210821282F3CFB0E0A0E0E3E208
:101C4000FEE00C946934EC018A81BB24BA9480FDD7
:101C500002C0BB24B394A09074018C81811109C08F
:101C600081E0B81220C08FEF8A0D8093C90281E015
:101C70008C83F12CE12C4EE3942EEA14B8F00E94F0
:101C8000B40B8091C90291E0B91257C0811150C0C4
:101C90008091740181508093C9021C82CDB7DEB758
:101CA000ECE00C9485341092C902E1CF00917201EE
:101CB0000E0D1F2D111DC801880F991F080F191F28
:101CC00004531D4FF80111821082128234E0C32E9A
:101CD000D12C812C8091C902880D8F332CF1692D74
:101CE0000E94A634892F082E000C990B8E159F0593
:101CF00091F48091BF048C9DA0018D9D500D112405
:101D0000559547955595479598016091BE048091EA
:101D1000BD040E94070C8B0CF1E0CF1AD108D1F65C
:101D20008FEFE81AF80AA9CF87FFDDCF8A0DDBCF46
:101D300081508093C902BC82B1CF90E0019660913E
:101D4000740170E00E94B4348093C9028C83A6CFE2
:101D5000EF92FF921F93CF93DF93EC0110E0EE24FC
:101D6000EA94F12C60917401161770F00E94B40B84
:101D70009A818C8190FF27C08F5F8C83DF91CF91F8
:101D80001F91FF90EF90089520917201422F410F13
:101D90005527551FCA019A01220F331F280F391FDB
:101DA00024533D4F70E0C7010E94B434962F8C81BC
:101DB0004091BF046091BE04199F800D11240E94C0
:101DC000070C1F5FCFCF8150D8CFA3E0B0E0EBEE80
:101DD000FEE00C9473349091BC0490FF0AC09E0105
:101DE0002F5F3F4F0E94070C4B8169818A810E94BF
:101DF000D80B2396E2E00C948F34CF93DF93EC0161
:101E0000ECEBF4E0438162818C810E94E50E8C81D1
:101E10008F5F8C83DF91CF910895CF93DF93EC0197
:101E2000EC81F0E0E850FB4F4491ECEBF4E0628190
:101E300081810E94E50E8C818F5F8C83DF91CF9131
:101E4000089580E0089581E08093BE020895F8949B
:101E5000E82FE295EF70F0E031A1282F2F7081E09C
:101E600090E001C0880F2A95EAF7982F9095932368
:101E700091A392A1892B82A3789408950F931F9325
:101E800080912705882329F00E945C0A1F910F91F9
:101E900008950E945C0A009193021091940220918F
:101EA000950230919602600F711F821F931FEECF33
:101EB0009091A10292FF10C041E0282F247124309C
:101EC00009F040E031E0282F2871283009F030E097
:101ED000431711F02CE0822793FF10C041E0282F18
:101EE0002471243109F040E031E0282F2871283195
:101EF00009F030E0431711F02CE082273091A20264
:101F000030FF10C051E0282F2171213009F050E03E
:101F100041E0282F2871283009F040E0541711F0D3
:101F200029E0822731FF10C041E0282F21712131A3
:101F300009F040E031E0282F2871283109F030E025
:101F4000431711F029E0822794FD877E0895823897
:101F50009105B9F1B0F48133910509F47DC048F4DD
:101F60008932910509F46DC08A32910509F47BC06C
:101F700008958533910509F45FC08933910509F10E
:101F80000895833E9105D9F138F4803E910529F1F9
:101F9000823E910579F10895863E9105D9F1873EFB
:101FA000910509F43EC0843E910541F52091A202BD
:101FB00021FF24C08091A10284FD19C087EE90E02A
:101FC00008952091A102237009F05AC02091A20225
:101FD00023FF14C089E290E008952091A10220FD22
:101FE00038C03091A20230FF09C024FF43C090E006
:101FF00080E008952091A10222FDF7CF089520915D
:10200000A10222FD3AC03091A20230FD39C024FF66
:10201000F5CFEDCF2091A10223FFF0CF24FDE7CF34
:10202000CDCF2091A10223FD2EC03091A20231FF1D
:10203000EECF84EE90E008952091A10225FFDECF3F
:10204000C9CF2091A10225FD21C02091A20223FF2A
:10205000D5CF89E390E0D2CF2091A10226FFCECF49
:102060008AE290E008952091A10226FFC7CF81E384
:1020700090E0089583EE90E0089582EE90E0089558
:1020800080EE90E0089586EE90E0089585E390E07C
:102090000895972F7830B8F46730A8F48730B0F4FB
:1020A00070E027E0929F600D711D1124FB0198E301
:1020B000899FE00DF11D1124EE0FFF1FE455FF4F26
:1020C00085919491089580E090E0089581E0FCCF9F
:1020D0001F93CF93DF930E94A70FEC01C11580E5FA
:1020E000D807F0F5C11580E4D80708F09CC0C03EC1
:1020F000D10520F5CD3CD10508F082C0C83AD10504
:1021000078F4C53AD10508F073C0C130D10519F192
:10211000209709F1C430D105F0F4D0E0C0E01BC035
:10212000C33CD105D0F7C85AD0E0CC0FDD1FC7574C
:10213000DE4F0990D881C02DD4640DC0C11580E256
:10214000D80708F0D1C0C11581E0D80708F05AC0FF
:10215000C83ED10510F7CE01DF91CF911F910895B0
:10216000C03682E5D80718F5C03482E5D80708F0F4
:102170006BC0C03282E5D80708F05FC0C11582E5A8
:10218000D80708F497C02C2F2695269580E2289F23
:10219000900111248C2F8370C1E0D0E002C0CC0FDD
:1021A000DD1F8A95E2F7C22BD32BDD68D4CFC03A6E
:1021B00082E5D80760F4C03882E5D80708F459C032
:1021C000CF71D0E0DC2FCC27C46FD06AC4CFC03C25
:1021D00082E5D80708F462C0C03E82E5D80708F05F
:1021E0009CCFDC2FCC27CC27DF71C06FD06AB3CF58
:1021F000C55AD0E0CA57DE4FC881D0E0D064ABCF1B
:10220000D065A9CF8D2F0E94580F182FCE01992786
:102210000E94A70FC12FD0E0DC2FCC27CC27DF7185
:10222000C82BD92B98CFCE0199270E94A70FCC2776
:10223000DF70C82BD92BD06A8ECFCF71D0E0DC2FC6
:10224000CC27C16FD06A87CF2C2F26952695277073
:1022500080E2289F900111248C2F8370C1E0D0E090
:1022600002C0CC0FDD1F8A95E2F7C22BD32BDC68AE
:1022700072CF2C2F26952695277080E2289F9001FB
:1022800011248C2F8370C1E0D0E002C0CC0FDD1F81
:102290008A95E2F7C22BD32BDA685DCF8C2F8F7132
:1022A0000E94580FC82FD0E0DC2FCC27CC27DF713D
:1022B000D06251CF8C2F8F710E94580F55E0D69568
:1022C000C7955A95E1F7CF70D0E0DC2FCC27282FA7
:1022D00030E084FF05C044E0220F331F4A95E1F748
:1022E000C22BD32BD06937CF8D2F8F710E94580FFF
:1022F000182FCE0199270E94A70FC12FD0E0DC2F05
:10230000CC27CC27DF71C82BD92BD2CF80959091C9
:1023100046029823909346020895809184059091F7
:102320004B05981301C008958F5F8770FACFB0E016
:10233000A0E0EDE9F1E10C946C347C010091C6045D
:102340001091C7048091C4049091C504082B192BE7
:10235000CFE0D0E0CC24C394D12CBC2EC6010C2EEF
:1023600002C0880F991F0A94E2F780239123892BDA
:1023700049F4219790F7B12C8B2DCDB7DEB7E9E06A
:102380000C948834B7018C2F0E9449100E94681069
:10239000019779F3F1CFCF93DF93EC010E9497116E
:1023A000BE010E9449100E946810DF91CF910895EC
:1023B000983078F5873068F5E82FF0E087E0989F4F
:1023C000E00DF11D11249E2F977083E0F695E7959F
:1023D0008A95E1F7EE0FFF1FEE0FFF1FE85EFD4F3E
:1023E00050E040E080E0219130E0092E02C03695B7
:1023F00027950A94E2F721703327042E01C0220F9B
:102400000A94EAF7822B4F5F5F4F4430510559F72A
:10241000089580E00895983098F5873088F5E82F82
:10242000F0E087E0989FE00DF11D11248E2F87705A
:1024300041E001C0440F8A95EAF783E0F695E795FD
:102440008A95E1F7EE0FFF1FEE0FFF1FE85EFD4FCD
:1024500030E020E070E05191DF011197CB01022EB6
:1024600002C0969587950A94E2F781708195852739
:10247000842385278C932F5F3F4F2430310559F7F4
:1024800008959093C7048093C604089521E030E036
:1024900002C0220F331F8A95E2F720953095809174
:1024A000C6049091C704822393230E944112089589
:1024B00090913B028095892380933B02282F2770BF
:1024C00069F4891759F09091A20292FF07C086958E
:1024D000869586950E94461210923B02089521E04F
:1024E00030E002C0220F331F8A95E2F78091C604C4
:1024F0009091C704822B932B0E94411208959093D0
:10250000C5048093C4040895FC0124812223C1F0F2
:10251000808191810E94CB1192959F70963091F0AD
:1025200058F4925F9F70923058F4803F19F030F465
:10253000883E30F481E008959A5FF4CF843FD1F370
:1025400080E00895883EB0F3813FD1F7F3CFA6E055
:10255000B0E0EDEAF2E10C94723449835A83498188
:102560005A819923A1F0222391F0CA010E94971168
:10257000182F682F89819A810E940B1269817A81B4
:10258000812F0E9449102696E3E00C948E34CA01F4
:102590000E94D811182FF2CFCF93DF93C0919109E9
:1025A000D09192098A30C1F420918805CE018B58D0
:1025B0009540622F70E00E944F34281B822F66E006
:1025C0000E949A34C82FC15018F4DF91CF9108951A
:1025D00080E20E94CC12F7CF8D30E9F4CB58D54081
:1025E00020918805622F70E0CE010E944F34281B95
:1025F000822F9E01280F311D2115344018F080E0F4
:10260000D0E0C0E0C80FD11DC557DA4FD093920972
:10261000C0939109DACF96E0FE01ABE8B9E00190F2
:102620000D929A95E1F7803E08F458C086E0FE01CD
:1026300011928A95E9F7C0919109D091920946E0EB
:1026400050E0BE018BE899E00E9485359E012B5831
:102650003540892B41F1C90146E0969587954A9509
:10266000E1F741E050E0BA0102C0660F771F8A959A
:10267000E2F7CB016091890570918A05862B972B33
:10268000B9016B5F7F4FE6E076956795EA95E1F7D4
:1026900002C0440F551F6A95E2F7842B952B909347
:1026A0008A05809389052A5F3F4F40918805642FF2
:1026B00070E0C9010E944F34481B463010F4240FCB
:1026C000311D211574E0370710F030E020E0255768
:1026D0003A4F309392092093910977CFF6E08F9F7C
:1026E000B0011124695F734F46E050E0CE010E94B3
:1026F0006F35A1CFCF93DF93EC01FE01849181115F
:1027000003C0DF91CF9108950E94CC122196F5CF9E
:102710002091460280913D02282B80913C02882323
:1027200081F0282B30E080E192E0FC014191CF0163
:1027300041113F5FF2E086319F07B9F731111092E6
:102740003C0220930E0248E050E06EE372E08EE01F
:1027500092E00E948535892BA9F088E0EEE0F2E056
:10276000AEE3B2E001900D928A95E1F7E0912B057E
:10277000F0912C05309731F00280F381E02D8EE04E
:1027800092E009950895882321F00E9486110E9405
:1027900088130895882339F090914602982B9093DE
:1027A00046020E94881308950F931F93CF93DF93DF
:1027B0008B01EA0190914105943061F58093E90025
:1027C0008FEF9091E800815095FD06C095ED9A95A8
:1027D000F1F700008111F5CF8091E80085FF1AC064
:1027E0000E941C09811111C08091E80085FD06C07E
:1027F0008091E8008E778093E800F2CFF801819114
:102800008F018093F100219779F78091E8008E770E
:102810008093E800DF91CF911F910F91089543E0DD
:1028200050E0BC0182E00E94D413089546E050E0DD
:10283000BC0182E00E94D4130895CF93DF93EC0192
:1028400048E050E0BC0181E00E94D41388E0FE0122
:10285000A7E3B5E001900D928A95E1F7DF91CF9162
:10286000089581E08093E00080E28093D800109288
:10287000C9008FE19EE40197F1F700C0000087E0F6
:1028800090EBDC018093930990939409A0939509B0
:10289000B093960988E19CE00FB6F894A8958093D0
:1028A00060000FBE90936000FFCF539A4BB1477FFB
:1028B0005BB15860EFB7F8949B01220F331F260FCE
:1028C000371F280F391F2817390741F4EFBF8FE54D
:1028D00094E00197F1F700C000000895DC016D91CC
:1028E000CD0178E05BB9000000C067FF4BB9660F0F
:1028F000000000C000C000C04BB900C07A9591F73D
:10290000E2CFB0E0A0E0E7E8F4E10C946B347C01A6
:102910005B016A018091920201E010E08A3010F4BC
:102920000AE010E0C1E0D0E0B501C701F601099569
:10293000811104C021960C171D072CF4CDB7DEB70A
:10294000EAE00C948734CC9F9001CD9F300D300D80
:10295000112490E080E045E34A95F1F700000196EC
:1029600082179307C1F7E0CFAB0124E630E0BC014A
:1029700088E70E94033221E0892B09F020E0822FB2
:10298000089580910E0590911105911103C091E079
:1029900089270895882369F062E070E08AEF95E066
:1029A0000E94B414811103C080910E050895109205
:1029B0000E0580910E05EBCFCF93C0910E0580914F
:1029C00011058823D1F00E945C0A605A75418F4F2F
:1029D0009F4F60930A0570930B0580930C059093AD
:1029E0000D05C11108C062E070E088EF95E00E941B
:1029F000B414811105C0C0910E058C2FCF9108959C
:102A000081E080930E05F7CFB0E0A0E0EAE0F5E1C9
:102A10000C946534FC016280448081E08483E8EF9B
:102A2000F4E07490E7E7F5E0E491C091BF04C69547
:102A3000C158D0E0CC0FDD1FCD2FDD27812C75E0F4
:102A4000972EAA24AA94B12C55245A94E719EE2E55
:102A5000F12C80917401881638F00E94B40BCDB728
:102A6000DEB7E0E10C948134C82CD12C82E08615CD
:102A700068F09C9CF0019D9CF00D1124EA57FC4FDE
:102A80008091BD0480838091BE048183411023C066
:102A90009C9CF0019D9CF00D1124EA57FC4F138281
:102AA000128220917201C601820F911D9C01220F9A
:102AB000331F280F391F24533D4F9C9CF0019D9CD0
:102AC000F00D1124EA57FC4F4281618180810E9400
:102AD000070C8394BECF9C9C80019D9C100D1124FB
:102AE0000A571C4FF80183818823F1F081508383BA
:102AF000859DC0011124648170E00E944F34FB0168
:102B0000FF27E850FB4F8491E82FE719E59DC001AE
:102B10001124B7010E944F348091BF04689FB00117
:102B20001124F8017283BDCF0E945F35B5010E9468
:102B3000B4348C179D070CF0B4CFF2E0F61598F47E
:102B40000E945F35B5010E94B434F80180830E9471
:102B50005F352091BE042695622F70E00E94B43448
:102B6000280FF80121839C9CF0019D9CF00D1124FD
:102B7000EA57FC4F12828091BF04893C58F088ECE0
:102B80009C9CF0019D9CF00D1124EA57FC4F84831E
:102B9000838387CF8431A0F784E1F2CFB0E0A0E057
:102BA000E4EDF5E10C94693449015A016B017C01B3
:102BB0000E94F10B8401A4016A2D7B2D88E090E036
:102BC0000E94D13594014A2D5B2DB601C70100E268
:102BD0000E94F834622F84E290E00E94BF35CDB7A6
:102BE000DEB7ECE00C948534A3E0B0E0EAEFF5E169
:102BF0000C946C34082FE62EF42EC22E9091BC0457
:102C000090FF41C02091BD04281308C08091BE04EC
:102C1000861304C08091BF04841729F08091C802F4
:102C200082608093C802E92FE695E695AE2FB0E06A
:102C3000AF52BE4F8C918093C6029C7F943039F581
:102C40009E012F5F3F4F4F2D6E2D802F0E94070C4E
:102C50004B8169818A810E94D80B0093BD04E09268
:102C6000BE04F092BF04CC2071F02091BC046091AE
:102C7000C0047091C104302FA7018091C2049091CB
:102C8000C3040E94CE152396E9E00C948834823068
:102C900019F4F090BF04E1CF8630A1F1893091F1B1
:102CA0008931D9F6E9516E2F6170B62EE695F0E0C4
:102CB000ED50FB4F1491D12C60917401D61618F091
:102CC0000E94B40BCACFD19EC001112470E00E94B3
:102CD0004F34802FB11014C0860F20917201622FE3
:102CE0006D0D7727771F9B01220F331F260F371F8C
:102CF00024533D4F4F2D6E2D0E94070CD394DCCFF3
:102D0000861BEBCF022FA9CFECEBF4E0438128E048
:102D1000421B08F440E021E0628181810E94F415A9
:102D20000895ECEBF4E0438128E0420F08F44FEF04
:102D300021E0628181810E94F4150895ECEBF4E0BA
:102D4000628128E0621B08F460E021E04381818118
:102D50000E94F4150895ECEBF4E0628128E0620F24
:102D600008F46FEF21E0438181810E94F4150895FA
:102D7000ECEBF4E0818121E04381628188500E9484
:102D8000F4150895ECEBF4E0818121E04381628148
:102D9000885F0E94F41508958091C004882319F07B
:102DA00081508093C0042091BC043091BD044091B7
:102DB000BE045091BF046091C0047091C104809121
:102DC000C2049091C3040E94CE1508958091C0045E
:102DD000833018F48F5F8093C0042091BC0430913D
:102DE000BD044091BE045091BF046091C004709135
:102DF000C1048091C2049091C3040E94CE1508952D
:102E00009091A20292FB222720F9281779F080FBEB
:102E100092F99093A2026091A1027091A20284E0C3
:102E200090E00E94DD3582E00E9458120895A4E0EF
:102E3000B0E0EDE1F7E10C947234409186025091DC
:102E4000870260918802709189022FB7F89480916F
:102E5000300590913105A0913205B09133052FBF17
:102E6000841B950BA60BB70B11E084369105A105C9
:102E7000B10570F10E943E0F6E5F7F4F8F4F9F4FE5
:102E800069837A838B839C8380913501909136018D
:102E90008C599D4F4091340150E04530510510F060
:102EA00044E050E0BE016F5F7F4F0E94923586E0A4
:102EB00090E00E94D933182F882351F00E945C0AB9
:102EC00060938602709387028093880290938902B0
:102ED000812F2496E3E00C948E344F925F926F9290
:102EE0007F928F929F92AF92BF92EF92FF920F9339
:102EF0001F93CF93DF937B01FB0140805180628061
:102F000073809FB7F8948090300590903105A09021
:102F10003205B09033059FBF84189508A608B708FE
:102F2000F4E68F169104A104B10418F4C1E044231F
:102F300029F1C82F880FDD0BFE0183E0EE0FFF1F84
:102F40008A95E1F7EC5FFE4F818192818C599D4F0C
:102F5000408150E00417150708F4A801B9010E9448
:102F60009235CE010E94D933C82F882339F00E94B0
:102F70005C0AF70160837183828393838C2FDF91D6
:102F8000CF911F910F91FF90EF90BF90AF909F90C6
:102F90008F907F906F905F904F900895A1E0B0E088
:102FA000E4EDF7E10C94713480910E058983209152
:102FB000850290E041E02817190609F440E001E09D
:102FC00010E09E012F5F3F4F6EE872E088E00E94A4
:102FD0006D172196E4E00C948D34ABE0B0E0E3EFA4
:102FE000F7E10C94713488E0ECEBF4E0DE0111962B
:102FF00001900D928A95E1F78091C6029091C702E7
:10300000A091C80289879A87AB8741E08B8581119F
:1030100001C040E00BE010E09E012F5F3F4F6AE8E7
:1030200072E087E00E946D1781111092C8022B9602
:10303000E4E00C948D340F931F93CF93DF93EC0156
:1030400044E050E069E672E00E94853541E0892B5A
:1030500009F440E004E010E09E016BE572E082E0DC
:103060000E946D17DF91CF911F910F9108954F929C
:103070005F927F928F929F92AF92BF92CF92DF9298
:10308000EF92FF920F931F93CF93DF930F92CDB7E1
:10309000DEB7C62E4A015901482E880F5508C201D5
:1030A0000E94D933782E882309F480C0C20133E00E
:1030B000880F991F3A95E1F7FC01EC5FFE4F4381C1
:1030C00050E04115510511F041E050E08C5F9E4FFA
:1030D000FC01648175816C597D4FCE0101960E947F
:1030E0009235F40140815181628173812FB7F89448
:1030F0008091300590913105A0913205B091330552
:103100002FBF841B950BA60BB70B84369105A10529
:10311000B10540F4B701C8010E942D0B99818917B0
:1031200009F444C00C2C000CDD08C6010E94D93300
:10313000782E811113C0712C872D0F90DF91CF91C4
:103140001F910F91FF90EF90DF90CF90BF90AF90C5
:103150009F908F907F905F904F900895C60123E0DD
:10316000880F991F2A95E1F7FC01EC5FFE4F438120
:1031700050E0E416F50608F4A7018C5F9E4FFC01B1
:10318000648175816C597D4FC5010E949235B701EC
:10319000C8010E942D0B99818913CDCF0E945C0A32
:1031A000F4016083718382839383C6CFA701B80142
:1031B000C5010E949235C0CFA8E0B0E0E2EEF8E190
:1031C0000C946F3488E0E82EF12C0EE612E09E019C
:1031D0002F5F3F4F40E652E064E083E00E943718E3
:1031E000082F882389F190916D0280915F029817D2
:1031F00059F110E090917102809170028917F1F0FD
:10320000E92FF0E0E859FD4F828587FB662760F9DA
:103210009F5F93709093710290916F029F5F909364
:103220006F028F770E94820B182F8111E3CF85E008
:1032300090E00E94D933012F082302C01111F7CF6B
:1032400080916D0280935F02802F2896E6E00C94B7
:103250008B34A4E0B0E0EFE2F9E10C946D346B0143
:1032600084E0E82EF12C05E612E09E012F5F3F4F2F
:1032700047E552E061E080E00E943718882361F062
:1032800049815A816B817C8140935302509354024F
:10329000609355027093560240915302509154022C
:1032A0006091550270915602F6014083518362830A
:1032B00073832496E8E00C9489341F920F920FB622
:1032C0000F9211242F933F934F935F936F937F93AC
:1032D0008F939F93AF93BF93EF93FF938091E10000
:1032E00082FF09C08091E20082FF05C08091E10069
:1032F0008B7F8093E1008091DA0080FF24C0809171
:10330000D80080FF20C08091DA008E7F8093DA00A1
:103310008091D90080FF9DC080E189BD82E189BD97
:1033200009B400FEFDCF81E0809341058091340512
:10333000811109C00E94FD080E949E098091E2004F
:1033400084608093E2008091E10080FF17C080914B
:10335000E20080FF13C08091E2008E7F8093E20044
:103360008091E20080618093E2008091D8008062C9
:103370008093D80019BC85E0809341058091E100DD
:1033800084FF2BC08091E20084FF27C080E189BDCB
:1033900082E189BD89B5982F917080FFFBCF809124
:1033A000D8008F7D8093D8008091E1008F7E80933C
:1033B000E1008091E2008F7E8093E2008091E20044
:1033C00081608093E20080914205882309F447C020
:1033D00084E080934105809141058091E10083FF65
:1033E00027C08091E20083FF23C08091E100877FA6
:1033F0008093E10082E08093410510924205809124
:10340000E1008E7F8093E1008091E2008E7F8093C7
:10341000E2008091E20080618093E20042E060E09F
:1034200080E00E946C098091F00088608093F00039
:10343000FF91EF91BF91AF919F918F917F916F918C
:103440005F914F913F912F910F900FBE0F901F9062
:10345000189519BC109241051092340574CF8091D3
:10346000E30087FD93E090934105B5CF78941F92D8
:103470001FB61F9211248F939F93AF93BF93809198
:10348000300590913105A0913205B0913305019638
:10349000A11DB11D8093300590933105A093320595
:1034A000B0933305BF91AF919F918F911F901FBE35
:1034B0001F9018959C014FB7F8948091300590911A
:1034C0003105A0913205B09133054FBF821B930B9C
:1034D00008952FB7F8948091300590913105A0910F
:1034E0003205B09133052FBF08950E94691A9C01DF
:1034F0009091230580912405982B21F0309320058D
:1035000020931F059091250580912605982B21F089
:1035100030931E0520931D05E0912B05F0912C059D
:10352000309749F082E0809321050680F781E02DF5
:1035300081E295E009950895CF9310924602C6E086
:10354000E0E1F2E0DF018C2F1D928A95E9F790E02F
:1035500080E00E94A70A90E080E00E94820A109218
:103560003D020E948813E1E2F5E0DF011D92CA9559
:10357000E9F710921A0510921B0510921C050E9483
:10358000751ACF910895AAE2B0E0E9ECFAE10C9443
:10359000723483E495E02091F100FC012193CF0186
:1035A000F5E08B349F07B9F780914405833009F427
:1035B00070C0B8F4813009F447C0823009F4B1C05A
:1035C0008091E80083FF7EC280914305909144057D
:1035D0009A3008F077C2E92FF0E0E85AF94C0C94E1
:1035E000C8348A3009F48CC08B3009F46FC089303C
:1035F00039F780914305813219F780914705909101
:1036000048050297E8F68091E800877F8093E800FC
:103610008091E80082FF38C09091F3008091F20021
:10362000029731F48091F100813011F0863021F45D
:103630008091F100809336058091E8008B7780932C
:10364000E8000E944D09BCCF80914305813A09F002
:10365000B7CF8091E800877F8093E800809147058D
:1036600090914805892B61F468E087E395E070E06C
:103670000E94F9098091E8008B778093E800A0CF41
:1036800060E090E080E0F3CF809141058111C0CFF0
:1036900097CF80914305813A09F092CF80914705F9
:1036A00090914805892B09F08BCF8091E800877FA6
:1036B0008093E8008091E80080FFFCCF80917E013C
:1036C0008093F1008091E8008E77B9CF8091430517
:1036D000813209F075CF8091470590914805892B7B
:1036E00009F06ECF8091E800877F8093E8000E9408
:1036F0004D098091450580937E010E949C1A60CF00
:1037000080914305813209F05BCF8091E800877F8B
:103710008093E8000E944D0980914605809335050D
:103720004FCF80914305813A09F04ACF8091E8005C
:10373000877F8093E8008091E80080FFFCCF809134
:103740003505BECF803899F0823809F0BBC1809131
:1037500047058F70873008F0B5C18093E9008091EC
:10376000EB0085FB882780F91092E90006C0809164
:103770003F0590914005911182609091E800977FFC
:103780009093E8008093F1001092F1008091E8009E
:103790008E7794C1882309F482C1823009F092C1E6
:1037A00080914505811185C1809147058F702FEF6C
:1037B000280F263008F086C18093E9002091EB00A5
:1037C00020FF77C1933031F48091EB0080628093C9
:1037D000EB006FC19091EB0090619093EB0021E0C2
:1037E00030E001C0220F8A95EAF72093EA00109298
:1037F000EA008091EB008860EACF811163C11091EB
:1038000045051F778091E3008078812B8093E3004A
:103810008091E800877F8093E8000E944D098091A5
:10382000E80080FFFCCF8091E30080688093E30094
:1038300082E0111183E08093410544C180588230B9
:1038400008F040C180914505909146058C3D23E0EC
:103850009207A1F583E08A838AE289834FB7F894BF
:10386000DE01139620E03EE051E2E32FF0E05093BA
:103870005700E49120FF03C0E295EF703F5FEF70C7
:103880008E2F90E0EA30C0F0C7968D939D932F5F06
:10389000243159F74FBF8091E800877F8093E8007B
:1038A0006AE270E0CE0101960E94F9098091E80079
:1038B0008B778093E80006C1C096E7CF409147051B
:1038C00050914805292F33272330310509F444C08E
:1038D00078F52130310509F46FC08BE390E0E4E81E
:1038E000FBE02230310509F0EDC02091E800277F90
:1038F0002093E8002091490530914A0582179307EB
:1039000008F49C0140E02115310509F064C0411123
:1039100062C08091E80082FDC9CF80914105882373
:1039200029F2853019F28091E80083FFF2CFBECFF3
:1039300021323105A9F12232310509F0C3C0411508
:10394000510509F443C04130510509F0BBC08BE774
:1039500090E0E5ECFAE0C9CF992781309105C1F0FC
:10396000009759F0029709F0ADC0E1EDFBE0E4915A
:103970008E2F90E0E1EDFBE007C0E3E0FCE0E49196
:103980008E2F90E0E3E0FCE0009709F49BC0ADCF00
:10399000E9EEFBE0E4918E2F90E0E9EEFBE0F4CF5E
:1039A0004115510571F04130510509F08BC089E096
:1039B00090E0EFEAFBE099CF82E190E0EFEBFBE0F3
:1039C00094CF89E090E0E6E9FBE08FCF84E490E0DB
:1039D000E0E4FBE08ACF80914105882309F466CFBB
:1039E000853009F463CF8091E80083FD5FCF80913B
:1039F000E80082FD8ECF8091E80080FF84CF909117
:103A0000F3008091F2002115310519F088309105FD
:103A100050F041E0089709F040E08091E8008E778F
:103A20008093E80070CF44914093F100319621508B
:103A300031090196E8CF803809F044C08091E80050
:103A4000877F8093E800809142058093F1009ECEAD
:103A5000811138C0109145051230A0F58091E80021
:103A6000877F8093E800109342050E944D0911233F
:103A700011F084E005C08091E30087FDFACF81E07A
:103A80008093410542E061EC81E00E946C0942E2D2
:103A900061EC82E00E946C098091410513C0809125
:103AA0004505813079F481E0933009F080E080931E
:103AB00040051092E9008091E800877F8093E8003C
:103AC0000E944D098091E80083FF0AC08091E800C0
:103AD000877F8093E8008091EB0080628093EB0009
:103AE000AA96E3E00C948E341F920F920FB60F92B9
:103AF00011242F933F934F935F936F937F938F93F3
:103B00009F93AF93BF93CF93DF93EF93FF93D091A6
:103B1000E900DF708091EC00C82FC17080FDC0E823
:103B20001092E9008091F000877F8093F0007894F4
:103B30000E94C31A1092E9008091F000886080937F
:103B4000F000CD2BCF70C093E900FF91EF91DF9192
:103B5000CF91BF91AF919F918F917F916F915F9125
:103B60004F913F912F910F900FBE0F901F9018957E
:103B70000E949C1A2FEF84E39CE0215080409040EB
:103B8000E1F700C0000088E19CE00FB6F894A8952A
:103B9000809360000FBE90936000FFCF409123059B
:103BA0009091250520912605662309F469C0942B80
:103BB000922B20912405922B31F098E090931A05D6
:103BC00091E090931B058D3C41F40E94FF0A819582
:103BD000809324050E94751A08958E3C19F40E9462
:103BE000FF0AF6CF8F3C31F40E94FF0A8195809343
:103BF0002305F0CF803D19F40E94FF0AF8CF893DDC
:103C000029F40E94DD0A80932505E4CF8A3D21F442
:103C10000E94DD0A8195F7CF8B3D31F40E94DD0AC9
:103C2000819580932605D6CF8C3D19F40E94DD0A3C
:103C3000F8CF9FE2980F983070F4815D990B21E0E6
:103C400030E001C0220F8A95EAF780912205822B8D
:103C500080932205BFCF8D3D31F480911C0581609A
:103C600080931C05B7CF8E3D21F480911C058260A6
:103C7000F7CF8F3D09F0AECF80911C058460F0CF67
:103C80008D3C59F48091240587FF0DC010922405C6
:103C900041110BC010921A0508C08E3C81F480912E
:103CA000240518169CF3442381F0809125059091FA
:103CB0002605892B09F08ECF10921B058BCF8F3CE8
:103CC00049F447FFF0CF109223058091240581111C
:103CD000ECCFE0CF803D19F41416ACF3E4CF893D6E
:103CE00029F4191604F710922505DDCF8A3D19F441
:103CF00097FFD9CFF8CF8B3D29F427FFD4CF10926F
:103D00002605D1CF8C3D19F41216CCF3CCCF9FE20F
:103D1000980F983090F4815D990B21E030E0B90163
:103D200002C0660F771F8A95E2F7CB0180959091CC
:103D30002205892380932205B6CF8D3D31F48091F1
:103D40001C058E7F80931C05AECF8E3D21F48091A3
:103D50001C058D7FF7CF8F3D09F0A5CF80911C0505
:103D60008B7FF0CF8823D1F19CEF980F913A78F4B4
:103D7000E0E1F2E09191891303C0DF0111971C92F9
:103D800092E0E631F907B1F70E948813089590E2B6
:103D9000980F983050F4877091E001C0990F8A9580
:103DA000EAF7892F0E948611EFCF9BE5980F933099
:103DB00028F490E080E00E94A70A089598E5980F03
:103DC0009B3128F490E080E00E94820A089593E3FA
:103DD000980F933118F460E00E94CE1D0895CF93A0
:103DE000C82F8823B1F08CEF8C0F813A00F5E0E109
:103DF000F2E086E192E0DF012D91C21761F08A17AF
:103E00009B07D1F76C2F8EE092E00E94680A0E9417
:103E10008813CF9108952191C21303C0DF01119738
:103E20001C928E179F07B9F70E948813EBCF80E290
:103E30008C0F883068F4C77021E030E001C0220F99
:103E4000CA95EAF780914602822B80934602DFCF23
:103E5000EBE5EC0FE33040F4F0E0EA57FE4F8081F1
:103E600090E00E94A70AD5CFE8E5EC0FEB3150F4C3
:103E7000F0E0EE0FFF1FE757FE4F808191810E9417
:103E8000820AC7CF83E38C0F833118F661E08C2F51
:103E90000E94CE1DBECF1F93CF93DF93182FEB014F
:103EA0000E94EF1E209739F4812F0E94B21EDF91ED
:103EB000CF911F9108958FE99FE00197F1F700C01E
:103EC00000002197EFCF0F931F93CF93DF93C62F5F
:103ED000D42F022FFC0185818823A9F060938705E8
:103EE0000E94691A9093860580938505C77081E0CA
:103EF00001C0880FCA95EAF70E94CA13DF91CF91DB
:103F00001F910F91089580918705681334C08091A7
:103F10008505909186050E945A1A883C910558F5AE
:103F200010E21D0FCD17B9F080E28C0F883040F4FD
:103F3000C77081E001C0880FCA95EAF70E94C313D9
:103F4000183048F481E09D2F977001C0880F9A9532
:103F5000EAF70E94CA1370E060E0802F0E944B1FB6
:103F6000183060F6D77081E001C0880FDA95EAF763
:103F70000E94C313C3CFC77081E001C0880FCA95E8
:103F8000EAF7F6CF80E090911505209114052917E6
:103F900039F1E92FF0E0EA5EFA4F808187FB2227B2
:103FA00020F98F779F5F937090931505909113057B
:103FB0009F5F90931305882349F0813079F470E076
:103FC00060E08EE4211108C08BE406C070E060E080
:103FD00089EA211101C08AEA0E944B1F81E0D3CFF8
:103FE00008952F923F925F926F927F928F929F924D
:103FF000AF92BF92CF92DF92EF92FF920F931F93F7
:10400000CF93DF9380911105882309F49EC080919E
:104010000F05909110050E945A1AC29708F475C0B6
:104020000E94691A9093100580930F058BE895E024
:10403000909392098093910980912705882309F430
:10404000A8C085E89AE00E947A138EE79AE00E9461
:104050007A1387E79AE00E947A138FE69AE00E942B
:104060007A138091C6049091C7042091C4043091C2
:10407000C504822B932B292F3327E0E0211531052E
:1040800011F0C901E8E09C01B4E036952795BA9596
:10409000E1F72115310511F0EC5FC9019C0136955E
:1040A0002795369527952115310511F0EE5FC90149
:1040B00096958795892B09F0EF5F8CE29AE0E730BF
:1040C00038F4F0E0EE59F94C0C94C83487E69AE0E5
:1040D0000E947A130E94CC0AC82F8CE19AE0C0FF9C
:1040E00002C084E29AE00E947A138CE09AE0C1FF59
:1040F00002C084E19AE00E947A138CEF99E0C2FF3B
:1041000002C084E09AE00E947A1380918905909120
:104110008A05892B09F06AC080910E058823A9F0D1
:104120000E945C0A00910A0510910B0520910C0574
:1041300030910D05601B710B820B930B6F3F7F4F0E
:104140008F4F9F4710F40E94C114DF91CF911F91B0
:104150000F91FF90EF90DF90CF90BF90AF909F9026
:104160008F907F906F905F903F902F9008958FE594
:104170009AE0AECF83E59AE0ABCF8EE49AE0A8CF89
:1041800089E49AE0A5CF8FE39AE0A2CF87E39AE093
:104190009FCF2091890530918A05ABE8B5E090E08A
:1041A00080E041E050E0FC01E450FA4FE4916D9171
:1041B000E61791F0ED012197E883BC01E6E07695E2
:1041C0006795EA95E1F7EA0102C0CC0FDD1F6A9519
:1041D000E2F7BE012C2B372B01968115D4E09D0709
:1041E00011F730938A05209389058FCF80911105AF
:1041F000882309F491CF8091090581118DCF0E9408
:10420000DC142091890530918A052115310509F4C6
:1042100083CF80E041E050E0082F10E01A01082E23
:1042200002C0220C331C0A94E2F7B101622373230B
:10423000672B11F48F5FF0CF9091080590FF95C028
:10424000880F880F880F8093770110927A01895F19
:104250008093780187E080937B0124E630E047E09B
:1042600050E065E771E088E70E94BF31892B09F0D3
:1042700053CFA80126E0440F551F2A95E1F78091FE
:10428000080580FF83C0E8ECF4E080E4DF011D92C4
:104290008A95E9F7A4E0B2E00CEF11E08CE0C82EBB
:1042A00082E0D82E97E0592E772473948D91E801FF
:1042B00029918E01240F352F311D25573A4FE82FB4
:1042C000F0E0E853FB4F90E080E0652C681A872C03
:1042D000082E01C0880C0A94EAF77901A12CE701A5
:1042E000B9907E01B820662D6A196770962E062E49
:1042F000000C770BDB2D01C0DD0F9A94EAF7719566
:10430000619571096770772701C0B6946A95EAF7DD
:10431000BD2A6081962E9B289082A39468E0A61205
:10432000DECF019631968830910579F6CA16DB0604
:1043300009F0BCCF04E610E020E430E048EC54E0A3
:1043400060E488E70E944932892B09F0E5CEE1015B
:10435000C095D0958091890590918A05C823D9236D
:10436000D0938A05C0938905D7CE8295880F880F90
:1043700080748093770198013695279520937A0170
:10438000815C8093780120937B0167CF45575A4F1A
:1043900004E610E020E430E0D3CF809127058823A5
:1043A00019F00E94691A08950E943E0FCB010895EA
:1043B0006091BC046695669570E04BE050E082E643
:1043C00091E00E947835892B19F481E08093C7022F
:1043D0000E94CD219093C1028093C0028091C802B7
:1043E00084608093C80208959091BC0490FF3AC005
:1043F0009370811138C094609093BC048091C8027E
:1044000081608093C802662391F02091BC043091B2
:10441000BD044091BE045091BF046091C0047091EE
:10442000C1048091C2049091C3040E94CE15609192
:10443000BC046695669570E04BE050E082E691E042
:104440000E947835892BB9F00E94AD0B81E08093F2
:10445000C30220E04091BF046091BE048091BD047E
:104460000E94F41508958B3210F0986AC5CF880F1A
:10447000880F982BC1CF0E94D821E8CF8091BC042F
:1044800086958695815009F48AE261E00E94F421C4
:1044900008958091BC04869586958F5F8B3208F0D5
:1044A00081E061E00E94F42108959091BC0490FFA6
:1044B00009C096959695981728F0961718F40E94BB
:1044C0004922089561E00E94F4210895B0E0A0E03F
:1044D000ECE6F2E20C946B348C01FC0184818823BD
:1044E00041F121E0408151816281738195810E9477
:1044F000A712EC01FC01E851FC47E730F105A8F5F3
:10450000E759F94C0C94C83426E241EE61EEC8013B
:104510000E94631F80913B02877059F0F8018581EA
:10452000882339F08091A20282FF03C082E00E94BA
:104530005812CDB7DEB7EAE00C94873427E245EE97
:1045400065EEE5CF26E241EE60EEE1CF27E245EEF3
:1045500064EEDDCF26E241EE62EED9CF27E245EEF2
:1045600066EED5CF28E241E0EBCFF80185818823C4
:1045700009F4F7C310928705CE019057839708F08E
:10458000DAC384E090E00E94A9359093A202809360
:10459000A102FE01E150F047E232F10520F4E059BA
:1045A000F94C0C94C8348091A10281608093A102DF
:1045B00095C08091A20288608093A2028FC08091F2
:1045C000A1028260F3CF8091A1028460EFCF80913D
:1045D000A1028860EBCF8091A2028160EDCF809133
:1045E000A2028260E9CF8091A1028061DFCF809139
:1045F000A1028062DBCF8091A1028064D7CF0E94AC
:104600009C1A8091A1028068D1CF8091A1028C6018
:10461000CDCF8091A2028360CFCF8091A1028E7F07
:10462000C5CF8091A202877FC7CF8091A1028D7FE5
:10463000BDCF8091A1028B7FB9CF8091A102877FEE
:10464000B5CF8091A2028E7FB7CF8091A2028D7FDD
:10465000B3CF8091A1028F7EA9CF8091A1028F7DDF
:10466000A5CF8091A1028F7BA1CF0E949C1A80913F
:10467000A1028F779BCF8091A102837F97CF8091FA
:10468000A2028C7F99CF8091A10282FB992790F999
:1046900021E0922790FB82F990FB83F987CF8091EC
:1046A000A202982F909591708E7F892B90FB81F9B3
:1046B00083CF9091A102892F8F7B96FF806476CF64
:1046C0000E949C1A9091A102892F97FB87F980582C
:1046D0006DCF61E08EE090E00E94BF356091A10255
:1046E0007091A20284E090E00E94DD350E949C1A45
:1046F00011CF60E0EFCF9091A102892F8F7E94FFC0
:10470000806154CF9091A102892F8E7F90FF8160AC
:104710004DCF9091A202892F877F93FF88604CCF65
:1047200085E328C38091BC0480FF1EC0282F2E7F04
:104730002093BC043091BD044091BE045091BF044D
:104740006091C0047091C1048091C2049091C3042F
:104750000E94CE150E94AD0B8091C80281608093AB
:10476000C8020E94B40BD6CE81608093BC0461E085
:10477000869586950E94F421CDCE4EE352E269E4FF
:1047800072E20E94A70BC6CE49E452E26EE372E2E7
:10479000F8CF48EB56E162EC76E1F3CF42EC56E11C
:1047A00068EB76E1EECF4EE956E16BEA76E1E9CFD0
:1047B0004BEA56E16EE976E1E4CF44E856E161E97F
:1047C00076E1DFCF41E956E164E876E1DACF4CECFF
:1047D00056E166EE76E1D5CF46EE56E16CEC76E139
:1047E000D0CF61E081E0C6CF65E082E00E94552233
:1047F00091CE68E086E0FACF6EE089E0F7CF64E121
:104800008FE0F4CF67E185E1F1CF61E088E1B2CFDD
:1048100062E289E1EBCF61E083E2ACCF6AE285E25C
:10482000E5CF0E949C1AFFEF24E33CE0F1502040CA
:104830003040E1F700C000000E9431146FEF7FEFBD
:1048400090E080E00E94DD350E94B81D8091A202B8
:1048500082FB882780F991E089270E940017F801E0
:104860008581C081D181882309F44DC0CE010E9489
:104870009711F82E682FCE010E940B12BE018F2DCA
:104880000E9449100E946810D82FC92FA82EF80145
:10489000C580B680B2943FE0B32280913B0287701E
:1048A00009F1EC2CCC20F9F0892F807F803469F05D
:1048B00080E28D0F8830B0F0892F807E803229F41D
:1048C000F1E0FD1778F4BB2069F08091A20282FF2D
:1048D00009C082E00E94581280913B028770EE244A
:1048E000E3948111E12CDC2ED2942FE0D2222BE034
:1048F0002D1508F46DC0ED2DF0E0EE56F94C0C943A
:10490000C83480E0AACFCE010E94D811F82EB6CFCD
:104910003C2F3F70F32EC07F19F0F29490EFF922F4
:10492000CC20B9F0FF2069F080E28D0F883010F0C4
:10493000A11009C080914602F82AF09246020E9416
:1049400088138D2F43C080913D02F82AF0923D02DA
:10495000F6CF8D2F0E94B21EFF20D1F1D05ED8304D
:1049600010F0A11004C08F2D0E94861106C0F09493
:1049700080913D02F822F0923D020E94881328C0E7
:104980008C2F8F70F82EC07FC03219F0F29480EF18
:10499000F822AA2059F091E0A91609F479C0CC2098
:1049A00009F485C0BB2009F447C0CBCF8091A20297
:1049B00082FD3EC0CC20B1F1FF2039F0809146024B
:1049C000F82AF09246020E94881380E00E94EF1EAF
:1049D0002D2D2850330B2430310510F40E94CC0AC1
:1049E000EE20A9F080913B0280FD11C0F8011582F4
:1049F0008695869586950E946F12C8010E94662250
:104A000080913B028695869586950E94461220E00D
:104A1000F8014081518162817381848195810E9476
:104A2000A71287CD80E00E94B21EFF2089F29BCFA3
:104A3000CC20A1F0B11004C08F2D0E94CA13C8CFA2
:104A4000E1E0BE12C5CF80913C029F2D9823F9165C
:104A500009F4BECFF82AF0923C02BACFB110B8CF19
:104A60008F2D0E94C31390913C028F2D892329F032
:104A70008F2D8095892380933C02809117029F2D72
:104A8000982309F4A5CFF094F822F0921702A0CF52
:104A9000CC2029F0F5E0FB1508F49ACFCDCF24E027
:104AA0002B1508F495CF8F2D0E94C31391CFBB20F7
:104AB000D1F339E3A31209C08FEF97EEE3E0815001
:104AC0009040E040E1F700C000008D2F0E94B21E30
:104AD0007FCF8C2F86958695837069F0813009F0A1
:104AE00077CF8D2F9C2F9370C11002C080E090E093
:104AF0000E94820A6DCF8D2F9C2F9370C11002C02F
:104B000080E090E00E94A70A63CF6C2D8D2F0E9459
:104B1000CE1D5ECF8C2F837009F03FC0C11058CFDF
:104B20004D2F429546954770440F440F2D2F2F70FF
:104B300030E0042E02C0220F331F0A94E2F790E007
:104B400080E0D4FF09C08FE090E002C0880F991F79
:104B50004A95E2F780959095C695C695C370C23088
:104B600099F078F44091C4045091C504C13039F0F3
:104B7000822B932B842395230E947F1229CF242BF1
:104B8000352B822B932BF8CF822B932B2091C404AF
:104B90003091C50482279327EFCF8695CC2011F062
:104BA0008C2F8170882309F413CF4D2F42954695A1
:104BB0004770440F440F2D2F2F7030E0042E02C099
:104BC000220F331F0A94E2F790E080E0D4FF09C07F
:104BD0008FE090E002C0880F991F4A95E2F7809518
:104BE0009095C695C695C370C23099F078F44091FF
:104BF000C6045091C704C13039F0822B932B842313
:104C000095230E944112E4CE242B352B822B932B2B
:104C1000F8CF822B932B2091C6043091C7048227B2
:104C20009327EFCFCF70CC2029F08C2F0E946F12EA
:104C30008D2F03CF8D2F0E94C3138C2F0E944612FD
:104C4000C7CE8D2FF2EFAF1699F1FA1570F020EF65
:104C5000A216D1F031EFA31691F0CC2009F45BC07D
:104C6000B1106FCE8C2F8F7127C093EFA91639F139
:104C7000E4EFAE12F2CF8091A20282FD2EC08C2F03
:104C80008F71CC20D9F218C0CC2069F0F4E0FB156C
:104C900008F49ECECF7181E090E002C0880F991F8A
:104CA000CA95E2F7B8CF25E02B1508F491CEF2CFE4
:104CB0008C2F8F71C110C2CF0E946F1289CE90E0ED
:104CC00080E0CC2009F49DCFCF7181E090E002C05C
:104CD000880F991FCA95E2F794CFCC2089F0CF7145
:104CE0008C2F0E946F128091A20282FF07C038E0D1
:104CF000C39FC0011124836080933B028C2FDCCFC3
:104D000081E00E94581281E08B1508F061CE82E0AC
:104D10000E9458125DCEBB2059F0893309F0D5CEE0
:104D20009FEFE7EEF3E09150E040F040E1F7CBCEAB
:104D30008C2F8F7183CFC631FCE7DF0749F5809157
:104D400046028A7A91E009F490E09093160269E2B3
:104D5000811165E38EE092E00E94680A0E94881348
:104D6000D9CBC6312CE7D20799F580911602811173
:104D7000D7CC89E2E0E1F2E026E132E091918913BB
:104D800003C0DF0111971C922E173F07B9F7E6CF3A
:104D9000C3303CE7D30709F451CD50F4C1159CE76B
:104DA000D90709F43ECDC130DC4709F44DCD57CDCC
:104DB000CB35FCE7DF0709F4A4CDCC352CE7D207CF
:104DC00009F444CDCA35DC4709F049CD81E045CD31
:104DD000809146028272FE01E052F847E531F1050A
:104DE00008F03DCDE256F94C0C94C834CF93DF93D4
:104DF00080913A02807F09F04DC08091390288236A
:104E000009F448C0E091840550914B05C0913502EA
:104E1000D0913402609136027091370247E05E17FC
:104E2000C9F18E2F90E0E49FF0011124E45BFA4F6A
:104E30002481222391F1489FF001499FF00D112414
:104E4000DF01A45BBA4F11962C9111972C1325C04A
:104E50002C912D1322C015962C91159721111DC050
:104E600012962D913C91261B370B283C3105A8F456
:104E700080913A028F70806180933A02EE5AFA4F25
:104E800080818F708061808384E392E00E9466223B
:104E90000E948D11DF91CF910895FC013196E7704A
:104EA000BECFA4E1B0E0E7E5F7E20C9469348C01F1
:104EB00086E0F801DE011F9601900D928A95E1F7D8
:104EC000F8018481E58094E3A92E92E0B92E9091B7
:104ED0003802911128C0882319F1EE20F1F0C801A1
:104EE0000E948412F82E8823C1F087E0F801D501D2
:104EF00001900D928A95E1F780913802813031F46A
:104F000080913402909135020E94CB110E94F626C6
:104F10008F2D6496ECE00C948534C8010E946622C3
:104F2000FF24F394F5CFD080C18082809380F090ED
:104F300039022091360230913702A401421B530BF3
:104F4000FF2009F4D9C0483C510508F092C08823DD
:104F5000F9F29091350280913A02282F207F09F0D2
:104F600056C0C91214C090913402D91210C0E11079
:104F700048C08F70806180933A0284E392E00E947F
:104F8000662280913A02F8018683F12CC1CFE110AC
:104F900038C06C2D8D2D0E94DE086C2D8D2D0E9449
:104FA000DE08E82E8111F1CFDF86C88A8F859889C7
:104FB0000E94CB11292F22952F70243058F49F7016
:104FC000223088F0992399F0F8019681907F79F446
:104FD000FE2C9ECF2A5F2F70223068F0C8010E94FD
:104FE0006622EF2CF5CF992311F0882389F3805E98
:104FF000883070F3F3CF803F58F3815F833070F7D0
:10500000E7CF80913A02816080933A02BECFC91205
:1050100007C090913402D91203C0EE2009F48DC06C
:10502000C8010E948412882309F477CFEE2009F486
:1050300074CF80913A02803288F02091340230910E
:105040003502398728879B868A86909138029C870B
:105050001D868E87CE0108960E94662287E0F801A1
:10506000A4E3B2E001900D928A95E1F70E94F62642
:1050700057CF90913A02292F207F51F484E392E098
:105080000E94662287E0F50111928A95E9F77DCFAB
:10509000882309F43DCF809135028C1110C0809196
:1050A0003402D8120CC0E1100AC09683C8010E94D5
:1050B000662287E0F50111928A95E9F729CFC801A8
:1050C0000E948412882309F428CFEE2009F425CF0A
:1050D00080913A02803210F22091340230913502F0
:1050E0003A8329839C828B82909138029D831E8211
:1050F0008F83CE010196B0CF483C5105D0F688236E
:1051000009F40ECFFE2CEE2009F407CF8091350272
:105110008C1120C080913402D8121CC080913A02B8
:1051200080FD0FC0982F907F61F08683903F31F013
:10513000982F907F905F8F70892B8683C8010E9483
:10514000662287E0F801A4E3B2E001900D928A950F
:10515000E1F7DECEC8010E94841281117FCF8091D9
:105160003A02816080933A02C8010E946622D0CE42
:10517000ABE1B0E0EEEBF8E20C9471344E8B5F8B58
:10518000688F798F8A8F9B8F192F911110923D0212
:105190001D8A86E0FE017696DE011F9601900D9233
:1051A0008A95E1F70A8D002341F021E04F85588967
:1051B00069897A89C8010E94A7120B8B1C8B87E032
:1051C000FE013F96DE01189601900D928A95E1F757
:1051D000CE0108960E94512781112AC087E0FE0166
:1051E0003896DE01119601900D928A95E1F78C8533
:1051F0008823F1F020914B0530E0C90101968770BA
:1052000099274091840548171906E9F097E0929F85
:10521000D001939FB00D1124A45BBA4FFE013196CB
:1052200001900D929A95E1F780934B050E948D11A4
:1052300017E08091840590914B05891312C06B96FD
:10524000E4E00C948D340E949C1A10924B0510924D
:10525000840587E0E4E3F2E0DF011D928A95E9F737
:10526000E7CF819FC0011124845B9A4F0E94512790
:10527000882329F38091840590E00196877099270F
:1052800080938405D6CFA3E1B0E0E9E4F9E20C9481
:1052900068348E01045F1F4F88E0D8011D928A9503
:1052A000E9F783E5C82E81E0D82EF12CE12CAA2461
:1052B000A394B12C23E5822E21E0922EF601819158
:1052C0006F018F3F09F442C0F894E82FE295EF7028
:1052D000F0E021A18F70A50102C0440F551F8A95EF
:1052E000E2F7CA01922F982B91A392A1809589236E
:1052F00082A3789400C0ECE4F1E0712C31E02191BC
:105300002F3F09F4B9C0A22FA295AF70B0E09096DC
:105310008C9190E02F7002C0959587952A95E2F7C1
:1053200080FDAAC0832F782A330F8E169F0639F787
:10533000F601319780818F3F11F00E94270F50EACC
:105340005A95F1F7F801EE0DFF1D70828FEFE81A04
:10535000F80A94E0E916F10409F0B0CF48E050E013
:10536000B80187E992E00E948535009741F028E076
:10537000F801A7E9B2E001900D922A95E1F70091BA
:10538000A00210E00C551D4F892B09F477C081E075
:1053900080934B020E94691A90934A0280934902BB
:1053A000F12CE0902705EE2009F4C2C019821A8280
:1053B0001B821C82809192028A3008F083C049E2ED
:1053C00059E1BE016F5F7F4FC8010E94811488239D
:1053D00009F49DC04BE158E1BE016F5F7F4FC801EA
:1053E0000E948114882309F492C04CED58E1BE015B
:1053F0006F5F7F4FC8010E948114882309F487C022
:1054000047E157E1BE016F5F7F4FC8010E948114E1
:10541000882309F47CC04DEE57E1BE016F5F7F4FDA
:10542000C8010E948114882309F471C04EEC57E131
:10543000BE016F5F7F4FC8010E948114882309F469
:1054400066C01092920280919F0290E044E050E08A
:10545000BE016F5F7F4F8C559D4F0E94853521E0C7
:1054600020935202892B09F044C0E12C8E2D8F2904
:105470006396EDE00C94843480E055CFF0904B02BD
:10548000FF2009F48DCF8091490290914A020E9439
:105490005A1A059708F484CF44E050E067E972E0B7
:1054A000C8010E948535892B59F084E0E7E9F2E0D4
:1054B000D80101900D928A95E1F710924B0271CFBD
:1054C000F12CFBCF80914C0290914D020E945A1A10
:1054D000843F914008F073CF80915202882329F2D3
:1054E00084E0FE013196DF011D928A95E9F7109262
:1054F0005202E0919F02F0E0EC55FD4F89819A81C4
:10550000AB81BC8180839183A283B383AFCF809131
:1055100092028F3F31F08F5F809392028A3008F4BD
:1055200092CF0E94691A90934D0280934C02D4CF7F
:10553000C0909F02D12CF601EC55FD4F6F0184E025
:10554000F801A5E6B2E001900D928A95E1F764E0DA
:1055500070E085E692E00E942D0B8093640284E067
:10556000E9E6F2E0D60101900D928A95E1F788E034
:10557000E2E1F5E0AEE6B2E001900D928A95E1F746
:1055800068E070E08EE692E00E942D0B80936D0241
:105590008090760290907702A0907802B090790285
:1055A00080914E0290914F02A0915002B091510211
:1055B00088169906AA06BB06B1F080924E02909218
:1055C0004F02A0925002B09251020E945C0A861AC9
:1055D000970AA80AB90A8092930290929402A09224
:1055E0009502B09296028BE0EAE7F2E0DE011196B6
:1055F00001900D928A95E1F72981822F86958695F3
:10560000DA80CB80BC800A851B851092840211232E
:10561000F9F010FF0AC09091BC0420FF20C09160F7
:105620009093BC0460E00E94F42111FF06C020E0CA
:105630004B2D6C2D8D2D0E94F41512FF04C00023FC
:10564000D9F00E94D82113FF03C081E08093C302E8
:1056500080918502882399F00E94DC1407CF9E7FF9
:105660009093BC040E94AD0B8091C802816080932E
:10567000C8020E94B40BD9CF0E94AD0BE4CF0E94A8
:10568000C114F4CEA6E0B0E0E8E4FBE20C9471347F
:105690000E94691A8C0180914702909148028017FC
:1056A000910781F019821A820E94691A682F498134
:1056B0005A81792F80E090E00E94B8281093480228
:1056C000009347022696E4E00C948D341F921FB697
:1056D0001F9211248F939F93AF93BF9380912F05B7
:1056E000811113C08091300590913105A091320550
:1056F000B09133054196A11DB11D80933005909363
:105700003105A0933205B0933305BF91AF919F91BE
:105710008F911F901FBE1F901895CDB7DEB72E97A3
:105720000FB6F894DEBF0FBECDBF85B7806885BFCA
:1057300085B7806885BF84B7877F84BF0FB6F8942C
:10574000A89580916000886180936000109260004D
:105750000FBE80E890E00FB6F894809361009093BC
:1057600061000FBE81E29FE090930D0280930C02D6
:105770000E94FD080E949E098091E200846080934F
:10578000E2007894809141058823A1F01091E9000E
:105790001F709091EC00892F817090FD80E8182B8C
:1057A0001092E9008091E80083FD0E94C31A1F70E7
:1057B0001093E90082E084BD93E095BD9AEF97BD18
:1057C00080936E00109293021092940210929502B0
:1057D000109296028091D80080618093D8002AE1CF
:1057E0002A95F1F700C08091D900182F117080FD23
:1057F00004C00E94FD0810924105109327052598CA
:105800002D988FE891E00197F1F700C0000093B167
:10581000292F207295FB882780F980932805809393
:105820005701222309F434C1109270018FE1809353
:1058300071018091270581110E94ED32E2E1F5E0CE
:1058400088E0DF011D928A95E9F78091570191E088
:1058500089278093BA02809157019093BD0280916D
:10586000570180915701811106C084EF80937C011C
:1058700085EF80937D0160E080E00E945F0B61E036
:1058800080E00E945F0BEFE8F1E03197F1F700C094
:10589000000010E08091BD02181708F4FDC080914F
:1058A0005701811120C086EF8093530187EF8093C9
:1058B000540181E38093550183E38093560187E08F
:1058C000EFE7F1E0DE01119601900D928A95E1F784
:1058D000FE013196ACE4B1E0CE01089621912D9302
:1058E0008E179F07D9F78091570194E0811190E0BE
:1058F0009093A00284E0891B80939F0203E511E04E
:1059000097E5E92E91E0F92ED8018D918D018F3F19
:1059100011F00E94270FE016F106B1F70CE411E038
:1059200083E5E82E81E0F82EF80181918F018F3F09
:1059300011F00E94270FE016F106B1F788E0E4EAC3
:10594000F2E0DF01282F1D922A95E9F7E7E9F2E05E
:10595000DF011D928A95E9F790E080E00E94A93569
:10596000863E9E4F09F466C066EE7EEF90E080E0D2
:105970000E94DD3560E082E090E00E94BF3581E06A
:1059800090E09093C5048093C40461E083E090E0CC
:105990000E94BF3560E074E184E090E00E94DD3554
:1059A00060E086E090E00E94BF3560E087E090E034
:1059B0000E94BF3540E050E0BA0188E090E00E94CC
:1059C000D13560E084E290E00E94BF3560E087E17D
:1059D00090E00E94BF3560E08CE090E00E94BF350F
:1059E00060E08DE090E00E94BF3519821A821B8230
:1059F0001C821D821E821F82188648E050E068E1EA
:105A000070E0CE0101960E94AF3540E050E0BA014F
:105A100080E290E00E94D13540E050E0BA018FE092
:105A200090E00E94D13540E050E0BA0183E190E07F
:105A30000E94D13582E090E00E949B358093AC02B9
:105A400084E090E00E94A9359093A2028093A10285
:105A50000E944329EFEFF6E721E0E150F0402040BB
:105A6000E1F700C000000E94432980912805E4E08E
:105A70008111E0E0F0E0EC55FD4F808186FF1EC013
:105A80006FEF7FEF90E080E00E94DD350E943114DF
:105A90008FE180937001CBCE60E0812F0E94430B99
:105AA000082F61E0812F0E94430BE12FF0E0E554C5
:105AB000FD4F880F802B80831F5FECCE83E090E04A
:105AC0000E949B3590E00E947F1282E0809308053F
:105AD00080E8809388050E948B316BE070E083ED55
